{
    "_format": "hh-sol-artifact-1",
    "contractName": "MyEpicNFT",
    "sourceName": "contracts/MyEpicNFT.sol",
    "abi": [
        {
            "inputs": [],
            "stateMutability": "nonpayable",
            "type": "constructor"
        },
        {
            "anonymous": false,
            "inputs": [
                {
                    "indexed": true,
                    "internalType": "address",
                    "name": "owner",
                    "type": "address"
                },
                {
                    "indexed": true,
                    "internalType": "address",
                    "name": "approved",
                    "type": "address"
                },
                {
                    "indexed": true,
                    "internalType": "uint256",
                    "name": "tokenId",
                    "type": "uint256"
                }
            ],
            "name": "Approval",
            "type": "event"
        },
        {
            "anonymous": false,
            "inputs": [
                {
                    "indexed": true,
                    "internalType": "address",
                    "name": "owner",
                    "type": "address"
                },
                {
                    "indexed": true,
                    "internalType": "address",
                    "name": "operator",
                    "type": "address"
                },
                {
                    "indexed": false,
                    "internalType": "bool",
                    "name": "approved",
                    "type": "bool"
                }
            ],
            "name": "ApprovalForAll",
            "type": "event"
        },
        {
            "anonymous": false,
            "inputs": [
                {
                    "indexed": false,
                    "internalType": "address",
                    "name": "sender",
                    "type": "address"
                },
                {
                    "indexed": false,
                    "internalType": "uint256",
                    "name": "tokenId",
                    "type": "uint256"
                }
            ],
            "name": "NewEpicNFTMinted",
            "type": "event"
        },
        {
            "anonymous": false,
            "inputs": [
                {
                    "indexed": true,
                    "internalType": "address",
                    "name": "from",
                    "type": "address"
                },
                {
                    "indexed": true,
                    "internalType": "address",
                    "name": "to",
                    "type": "address"
                },
                {
                    "indexed": true,
                    "internalType": "uint256",
                    "name": "tokenId",
                    "type": "uint256"
                }
            ],
            "name": "Transfer",
            "type": "event"
        },
        {
            "inputs": [],
            "name": "TotalMintedSoFar",
            "outputs": [
                {
                    "internalType": "uint256",
                    "name": "",
                    "type": "uint256"
                }
            ],
            "stateMutability": "view",
            "type": "function"
        },
        {
            "inputs": [
                {
                    "internalType": "address",
                    "name": "to",
                    "type": "address"
                },
                {
                    "internalType": "uint256",
                    "name": "tokenId",
                    "type": "uint256"
                }
            ],
            "name": "approve",
            "outputs": [],
            "stateMutability": "nonpayable",
            "type": "function"
        },
        {
            "inputs": [
                {
                    "internalType": "address",
                    "name": "owner",
                    "type": "address"
                }
            ],
            "name": "balanceOf",
            "outputs": [
                {
                    "internalType": "uint256",
                    "name": "",
                    "type": "uint256"
                }
            ],
            "stateMutability": "view",
            "type": "function"
        },
        {
            "inputs": [
                {
                    "internalType": "uint256",
                    "name": "tokenId",
                    "type": "uint256"
                }
            ],
            "name": "getApproved",
            "outputs": [
                {
                    "internalType": "address",
                    "name": "",
                    "type": "address"
                }
            ],
            "stateMutability": "view",
            "type": "function"
        },
        {
            "inputs": [
                {
                    "internalType": "address",
                    "name": "owner",
                    "type": "address"
                },
                {
                    "internalType": "address",
                    "name": "operator",
                    "type": "address"
                }
            ],
            "name": "isApprovedForAll",
            "outputs": [
                {
                    "internalType": "bool",
                    "name": "",
                    "type": "bool"
                }
            ],
            "stateMutability": "view",
            "type": "function"
        },
        {
            "inputs": [],
            "name": "makeAnEpicNFT",
            "outputs": [],
            "stateMutability": "nonpayable",
            "type": "function"
        },
        {
            "inputs": [],
            "name": "name",
            "outputs": [
                {
                    "internalType": "string",
                    "name": "",
                    "type": "string"
                }
            ],
            "stateMutability": "view",
            "type": "function"
        },
        {
            "inputs": [
                {
                    "internalType": "uint256",
                    "name": "tokenId",
                    "type": "uint256"
                }
            ],
            "name": "ownerOf",
            "outputs": [
                {
                    "internalType": "address",
                    "name": "",
                    "type": "address"
                }
            ],
            "stateMutability": "view",
            "type": "function"
        },
        {
            "inputs": [
                {
                    "internalType": "address",
                    "name": "from",
                    "type": "address"
                },
                {
                    "internalType": "address",
                    "name": "to",
                    "type": "address"
                },
                {
                    "internalType": "uint256",
                    "name": "tokenId",
                    "type": "uint256"
                }
            ],
            "name": "safeTransferFrom",
            "outputs": [],
            "stateMutability": "nonpayable",
            "type": "function"
        },
        {
            "inputs": [
                {
                    "internalType": "address",
                    "name": "from",
                    "type": "address"
                },
                {
                    "internalType": "address",
                    "name": "to",
                    "type": "address"
                },
                {
                    "internalType": "uint256",
                    "name": "tokenId",
                    "type": "uint256"
                },
                {
                    "internalType": "bytes",
                    "name": "_data",
                    "type": "bytes"
                }
            ],
            "name": "safeTransferFrom",
            "outputs": [],
            "stateMutability": "nonpayable",
            "type": "function"
        },
        {
            "inputs": [
                {
                    "internalType": "address",
                    "name": "operator",
                    "type": "address"
                },
                {
                    "internalType": "bool",
                    "name": "approved",
                    "type": "bool"
                }
            ],
            "name": "setApprovalForAll",
            "outputs": [],
            "stateMutability": "nonpayable",
            "type": "function"
        },
        {
            "inputs": [
                {
                    "internalType": "bytes4",
                    "name": "interfaceId",
                    "type": "bytes4"
                }
            ],
            "name": "supportsInterface",
            "outputs": [
                {
                    "internalType": "bool",
                    "name": "",
                    "type": "bool"
                }
            ],
            "stateMutability": "view",
            "type": "function"
        },
        {
            "inputs": [],
            "name": "symbol",
            "outputs": [
                {
                    "internalType": "string",
                    "name": "",
                    "type": "string"
                }
            ],
            "stateMutability": "view",
            "type": "function"
        },
        {
            "inputs": [
                {
                    "internalType": "uint256",
                    "name": "tokenId",
                    "type": "uint256"
                }
            ],
            "name": "tokenURI",
            "outputs": [
                {
                    "internalType": "string",
                    "name": "",
                    "type": "string"
                }
            ],
            "stateMutability": "view",
            "type": "function"
        },
        {
            "inputs": [
                {
                    "internalType": "address",
                    "name": "from",
                    "type": "address"
                },
                {
                    "internalType": "address",
                    "name": "to",
                    "type": "address"
                },
                {
                    "internalType": "uint256",
                    "name": "tokenId",
                    "type": "uint256"
                }
            ],
            "name": "transferFrom",
            "outputs": [],
            "stateMutability": "nonpayable",
            "type": "function"
        }
    ],
    "bytecode": "0x608060405260405180610160016040528061012f81526020016200436561012f913960089080519060200190620000389291906200067e565b506040518060c001604052806040518060400160405280600981526020017f4d6574617665727365000000000000000000000000000000000000000000000081525081526020016040518060400160405280600381526020017f4e4654000000000000000000000000000000000000000000000000000000000081525081526020016040518060400160405280600681526020017f467574757265000000000000000000000000000000000000000000000000000081525081526020016040518060400160405280600a81526020017f426c6f636b436861696e0000000000000000000000000000000000000000000081525081526020016040518060400160405280600681526020017f546f6b656e73000000000000000000000000000000000000000000000000000081525081526020016040518060400160405280600781526020017f45786369746564000000000000000000000000000000000000000000000000008152508152506009906006620001b69291906200070f565b506040518060c001604052806040518060400160405280600481526020017f576562330000000000000000000000000000000000000000000000000000000081525081526020016040518060400160405280600581526020017f537061636500000000000000000000000000000000000000000000000000000081525081526020016040518060400160405280600781526020017f4f6e436861696e0000000000000000000000000000000000000000000000000081525081526020016040518060400160405280600a81526020017f576562334272696467650000000000000000000000000000000000000000000081525081526020016040518060400160405280600781526020017f4c6179657220320000000000000000000000000000000000000000000000000081525081526020016040518060400160405280601181526020017f43727970746f4375727269656e63696573000000000000000000000000000000815250815250600a906006620003349291906200070f565b506040518060c001604052806040518060400160405280600481526020017f436f696e0000000000000000000000000000000000000000000000000000000081525081526020016040518060400160405280600981526020017f436f6d6d756e697479000000000000000000000000000000000000000000000081525081526020016040518060400160405280600281526020017f697300000000000000000000000000000000000000000000000000000000000081525081526020016040518060400160405280600b81526020017f5363616c6162696c69747900000000000000000000000000000000000000000081525081526020016040518060400160405280600781526020017f4c6174656e63790000000000000000000000000000000000000000000000000081525081526020016040518060400160405280600b81526020017f417265596f755265616479000000000000000000000000000000000000000000815250815250600b906006620004b29291906200070f565b50348015620004c057600080fd5b506040518060400160405280600b81526020017f52414e444f4d435259544f0000000000000000000000000000000000000000008152506040518060400160405280600781526020017f52414e44435254000000000000000000000000000000000000000000000000008152508160009080519060200190620005459291906200067e565b5080600190805190602001906200055e9291906200067e565b505050620005ac6040518060400160405280601e81526020017f54686973206973206d79204e465420636f6e74726163742e2057686f61210000815250620005b260201b62000eda1760201c565b62000930565b6200065281604051602401620005c9919062000844565b6040516020818303038152906040527f41304fac000000000000000000000000000000000000000000000000000000007bffffffffffffffffffffffffffffffffffffffffffffffffffffffff19166020820180517bffffffffffffffffffffffffffffffffffffffffffffffffffffffff83818316178352505050506200065560201b60201c565b50565b60008151905060006a636f6e736f6c652e6c6f679050602083016000808483855afa5050505050565b8280546200068c90620008ba565b90600052602060002090601f016020900481019282620006b05760008555620006fc565b82601f10620006cb57805160ff1916838001178555620006fc565b82800160010185558215620006fc579182015b82811115620006fb578251825591602001919060010190620006de565b5b5090506200070b919062000776565b5090565b82805482825590600052602060002090810192821562000763579160200282015b8281111562000762578251829080519060200190620007519291906200067e565b509160200191906001019062000730565b5b50905062000772919062000795565b5090565b5b808211156200079157600081600090555060010162000777565b5090565b5b80821115620007b95760008181620007af9190620007bd565b5060010162000796565b5090565b508054620007cb90620008ba565b6000825580601f10620007df575062000800565b601f016020900490600052602060002090810190620007ff919062000776565b5b50565b6000620008108262000868565b6200081c818562000873565b93506200082e81856020860162000884565b62000839816200091f565b840191505092915050565b6000602082019050818103600083015262000860818462000803565b905092915050565b600081519050919050565b600082825260208201905092915050565b60005b83811015620008a457808201518184015260208101905062000887565b83811115620008b4576000848401525b50505050565b60006002820490506001821680620008d357607f821691505b60208210811415620008ea57620008e9620008f0565b5b50919050565b7f4e487b7100000000000000000000000000000000000000000000000000000000600052602260045260246000fd5b6000601f19601f8301169050919050565b613a2580620009406000396000f3fe608060405234801561001057600080fd5b50600436106100f55760003560e01c80636352211e11610097578063b88d4fde11610066578063b88d4fde14610284578063c87b56dd146102a0578063de9d132f146102d0578063e985e9c5146102da576100f5565b80636352211e146101ea57806370a082311461021a57806395d89b411461024a578063a22cb46514610268576100f5565b8063095ea7b3116100d3578063095ea7b31461017857806314c8b4631461019457806323b872dd146101b257806342842e0e146101ce576100f5565b806301ffc9a7146100fa57806306fdde031461012a578063081812fc14610148575b600080fd5b610114600480360381019061010f91906124c7565b61030a565b6040516101219190612bf4565b60405180910390f35b6101326103ec565b60405161013f9190612c0f565b60405180910390f35b610162600480360381019061015d9190612519565b61047e565b60405161016f9190612b64565b60405180910390f35b610192600480360381019061018d919061248b565b610503565b005b61019c61061b565b6040516101a99190612e8f565b60405180910390f35b6101cc60048036038101906101c79190612385565b61062c565b005b6101e860048036038101906101e39190612385565b61068c565b005b61020460048036038101906101ff9190612519565b6106ac565b6040516102119190612b64565b60405180910390f35b610234600480360381019061022f9190612320565b61075e565b6040516102419190612e8f565b60405180910390f35b610252610816565b60405161025f9190612c0f565b60405180910390f35b610282600480360381019061027d919061244f565b6108a8565b005b61029e600480360381019061029991906123d4565b610a29565b005b6102ba60048036038101906102b59190612519565b610a8b565b6040516102c79190612c0f565b60405180910390f35b6102d8610bdd565b005b6102f460048036038101906102ef9190612349565b610e46565b6040516103019190612bf4565b60405180910390f35b60007f80ac58cd000000000000000000000000000000000000000000000000000000007bffffffffffffffffffffffffffffffffffffffffffffffffffffffff1916827bffffffffffffffffffffffffffffffffffffffffffffffffffffffff191614806103d557507f5b5e139f000000000000000000000000000000000000000000000000000000007bffffffffffffffffffffffffffffffffffffffffffffffffffffffff1916827bffffffffffffffffffffffffffffffffffffffffffffffffffffffff1916145b806103e557506103e482610f73565b5b9050919050565b6060600080546103fb90613123565b80601f016020809104026020016040519081016040528092919081815260200182805461042790613123565b80156104745780601f1061044957610100808354040283529160200191610474565b820191906000526020600020905b81548152906001019060200180831161045757829003601f168201915b5050505050905090565b600061048982610fdd565b6104c8576040517f08c379a00000000000000000000000000000000000000000000000000000000081526004016104bf90612def565b60405180910390fd5b6004600083815260200190815260200160002060009054906101000a900473ffffffffffffffffffffffffffffffffffffffff169050919050565b600061050e826106ac565b90508073ffffffffffffffffffffffffffffffffffffffff168373ffffffffffffffffffffffffffffffffffffffff16141561057f576040517f08c379a000000000000000000000000000000000000000000000000000000000815260040161057690612e4f565b60405180910390fd5b8073ffffffffffffffffffffffffffffffffffffffff1661059e611049565b73ffffffffffffffffffffffffffffffffffffffff1614806105cd57506105cc816105c7611049565b610e46565b5b61060c576040517f08c379a000000000000000000000000000000000000000000000000000000000815260040161060390612d2f565b60405180910390fd5b6106168383611051565b505050565b6000610627600761110a565b905090565b61063d610637611049565b82611118565b61067c576040517f08c379a000000000000000000000000000000000000000000000000000000000815260040161067390612e6f565b60405180910390fd5b6106878383836111f6565b505050565b6106a783838360405180602001604052806000815250610a29565b505050565b6000806002600084815260200190815260200160002060009054906101000a900473ffffffffffffffffffffffffffffffffffffffff169050600073ffffffffffffffffffffffffffffffffffffffff168173ffffffffffffffffffffffffffffffffffffffff161415610755576040517f08c379a000000000000000000000000000000000000000000000000000000000815260040161074c90612d6f565b60405180910390fd5b80915050919050565b60008073ffffffffffffffffffffffffffffffffffffffff168273ffffffffffffffffffffffffffffffffffffffff1614156107cf576040517f08c379a00000000000000000000000000000000000000000000000000000000081526004016107c690612d4f565b60405180910390fd5b600360008373ffffffffffffffffffffffffffffffffffffffff1673ffffffffffffffffffffffffffffffffffffffff168152602001908152602001600020549050919050565b60606001805461082590613123565b80601f016020809104026020016040519081016040528092919081815260200182805461085190613123565b801561089e5780601f106108735761010080835404028352916020019161089e565b820191906000526020600020905b81548152906001019060200180831161088157829003601f168201915b5050505050905090565b6108b0611049565b73ffffffffffffffffffffffffffffffffffffffff168273ffffffffffffffffffffffffffffffffffffffff16141561091e576040517f08c379a000000000000000000000000000000000000000000000000000000000815260040161091590612cef565b60405180910390fd5b806005600061092b611049565b73ffffffffffffffffffffffffffffffffffffffff1673ffffffffffffffffffffffffffffffffffffffff16815260200190815260200160002060008473ffffffffffffffffffffffffffffffffffffffff1673ffffffffffffffffffffffffffffffffffffffff16815260200190815260200160002060006101000a81548160ff0219169083151502179055508173ffffffffffffffffffffffffffffffffffffffff166109d8611049565b73ffffffffffffffffffffffffffffffffffffffff167f17307eab39ab6107e8899845ad3d59bd9653f200f220920489ca2b5937696c3183604051610a1d9190612bf4565b60405180910390a35050565b610a3a610a34611049565b83611118565b610a79576040517f08c379a0000000000000000000000000000000000000000000000000000000008152600401610a7090612e6f565b60405180910390fd5b610a8584848484611452565b50505050565b6060610a9682610fdd565b610ad5576040517f08c379a0000000000000000000000000000000000000000000000000000000008152600401610acc90612dcf565b60405180910390fd5b6000600660008481526020019081526020016000208054610af590613123565b80601f0160208091040260200160405190810160405280929190818152602001828054610b2190613123565b8015610b6e5780601f10610b4357610100808354040283529160200191610b6e565b820191906000526020600020905b815481529060010190602001808311610b5157829003601f168201915b505050505090506000610b7f6114ae565b9050600081511415610b95578192505050610bd8565b600082511115610bca578082604051602001610bb2929190612a13565b60405160208183030381529060405292505050610bd8565b610bd3846114c5565b925050505b919050565b6031610be9600761110a565b1115610c2a576040517f08c379a0000000000000000000000000000000000000000000000000000000008152600401610c2190612c8f565b60405180910390fd5b6000610c36600761110a565b90506000610c438261156c565b90506000610c508361168a565b90506000610c5d846117a8565b90506000838383604051602001610c7693929190612a37565b60405160208183030381529060405290506000600882604051602001610c9d929190612a68565b60405160208183030381529060405290506000610ce283610cbd846118c6565b604051602001610cce929190612afd565b6040516020818303038152906040526118c6565b9050600081604051602001610cf79190612adb565b6040516020818303038152906040529050610d466040518060400160405280601581526020017f0a2d2d2d2d2d2d2d2d2d2d2d2d2d2d2d2d2d2d2d2d0000000000000000000000815250610eda565b610d4f81610eda565b610d8d6040518060400160405280601581526020017f2d2d2d2d2d2d2d2d2d2d2d2d2d2d2d2d2d2d2d2d0a0000000000000000000000815250610eda565b610d973389611a84565b610dd6886040518060400160405280600d81526020017f66696e616c546f6b656e55726900000000000000000000000000000000000000815250611aa2565b610de06007611b16565b610e0360405180606001604052806025815260200161398b602591398933611b2c565b7febb98688741ffa4c7589bf325de30cf7becb63de567842e1ccdb6cb949fdc82c3389604051610e34929190612bcb565b60405180910390a15050505050505050565b6000600560008473ffffffffffffffffffffffffffffffffffffffff1673ffffffffffffffffffffffffffffffffffffffff16815260200190815260200160002060008373ffffffffffffffffffffffffffffffffffffffff1673ffffffffffffffffffffffffffffffffffffffff16815260200190815260200160002060009054906101000a900460ff16905092915050565b610f7081604051602401610eee9190612c0f565b6040516020818303038152906040527f41304fac000000000000000000000000000000000000000000000000000000007bffffffffffffffffffffffffffffffffffffffffffffffffffffffff19166020820180517bffffffffffffffffffffffffffffffffffffffffffffffffffffffff8381831617835250505050611bcb565b50565b60007f01ffc9a7000000000000000000000000000000000000000000000000000000007bffffffffffffffffffffffffffffffffffffffffffffffffffffffff1916827bffffffffffffffffffffffffffffffffffffffffffffffffffffffff1916149050919050565b60008073ffffffffffffffffffffffffffffffffffffffff166002600084815260200190815260200160002060009054906101000a900473ffffffffffffffffffffffffffffffffffffffff1673ffffffffffffffffffffffffffffffffffffffff1614159050919050565b600033905090565b816004600083815260200190815260200160002060006101000a81548173ffffffffffffffffffffffffffffffffffffffff021916908373ffffffffffffffffffffffffffffffffffffffff160217905550808273ffffffffffffffffffffffffffffffffffffffff166110c4836106ac565b73ffffffffffffffffffffffffffffffffffffffff167f8c5be1e5ebec7d5bd14f71427d1e84f3dd0314c0f7b2291e5b200ac8c7c3b92560405160405180910390a45050565b600081600001549050919050565b600061112382610fdd565b611162576040517f08c379a000000000000000000000000000000000000000000000000000000000815260040161115990612d0f565b60405180910390fd5b600061116d836106ac565b90508073ffffffffffffffffffffffffffffffffffffffff168473ffffffffffffffffffffffffffffffffffffffff1614806111dc57508373ffffffffffffffffffffffffffffffffffffffff166111c48461047e565b73ffffffffffffffffffffffffffffffffffffffff16145b806111ed57506111ec8185610e46565b5b91505092915050565b8273ffffffffffffffffffffffffffffffffffffffff16611216826106ac565b73ffffffffffffffffffffffffffffffffffffffff161461126c576040517f08c379a000000000000000000000000000000000000000000000000000000000815260040161126390612e0f565b60405180910390fd5b600073ffffffffffffffffffffffffffffffffffffffff168273ffffffffffffffffffffffffffffffffffffffff1614156112dc576040517f08c379a00000000000000000000000000000000000000000000000000000000081526004016112d390612ccf565b60405180910390fd5b6112e7838383611bf4565b6112f2600082611051565b6001600360008573ffffffffffffffffffffffffffffffffffffffff1673ffffffffffffffffffffffffffffffffffffffff16815260200190815260200160002060008282546113429190613039565b925050819055506001600360008473ffffffffffffffffffffffffffffffffffffffff1673ffffffffffffffffffffffffffffffffffffffff16815260200190815260200160002060008282546113999190612f58565b92505081905550816002600083815260200190815260200160002060006101000a81548173ffffffffffffffffffffffffffffffffffffffff021916908373ffffffffffffffffffffffffffffffffffffffff160217905550808273ffffffffffffffffffffffffffffffffffffffff168473ffffffffffffffffffffffffffffffffffffffff167fddf252ad1be2c89b69c2b068fc378daa952ba7f163c4a11628f55a4df523b3ef60405160405180910390a4505050565b61145d8484846111f6565b61146984848484611bf9565b6114a8576040517f08c379a000000000000000000000000000000000000000000000000000000000815260040161149f90612c6f565b60405180910390fd5b50505050565b606060405180602001604052806000815250905090565b60606114d082610fdd565b61150f576040517f08c379a000000000000000000000000000000000000000000000000000000000815260040161150690612e2f565b60405180910390fd5b60006115196114ae565b905060008151116115395760405180602001604052806000815250611564565b8061154384611d90565b604051602001611554929190612a13565b6040516020818303038152906040525b915050919050565b606060006115a061157c84611d90565b60405160200161158c9190612ab9565b604051602081830303815290604052611f3d565b9050600980549050816115b391906131cf565b9050600981815481106115ef577f4e487b7100000000000000000000000000000000000000000000000000000000600052603260045260246000fd5b90600052602060002001805461160490613123565b80601f016020809104026020016040519081016040528092919081815260200182805461163090613123565b801561167d5780601f106116525761010080835404028352916020019161167d565b820191906000526020600020905b81548152906001019060200180831161166057829003601f168201915b5050505050915050919050565b606060006116be61169a84611d90565b6040516020016116aa9190612b42565b604051602081830303815290604052611f3d565b9050600a80549050816116d191906131cf565b9050600a818154811061170d577f4e487b7100000000000000000000000000000000000000000000000000000000600052603260045260246000fd5b90600052602060002001805461172290613123565b80601f016020809104026020016040519081016040528092919081815260200182805461174e90613123565b801561179b5780601f106117705761010080835404028352916020019161179b565b820191906000526020600020905b81548152906001019060200180831161177e57829003601f168201915b5050505050915050919050565b606060006117dc6117b884611d90565b6040516020016117c89190612a97565b604051602081830303815290604052611f3d565b9050600b80549050816117ef91906131cf565b9050600b818154811061182b577f4e487b7100000000000000000000000000000000000000000000000000000000600052603260045260246000fd5b90600052602060002001805461184090613123565b80601f016020809104026020016040519081016040528092919081815260200182805461186c90613123565b80156118b95780601f1061188e576101008083540402835291602001916118b9565b820191906000526020600020905b81548152906001019060200180831161189c57829003601f168201915b5050505050915050919050565b606060008251905060008114156118ef5760405180602001604052806000815250915050611a7f565b600060036002836119009190612f58565b61190a9190612fae565b60046119169190612fdf565b905060006020826119279190612f58565b67ffffffffffffffff811115611966577f4e487b7100000000000000000000000000000000000000000000000000000000600052604160045260246000fd5b6040519080825280601f01601f1916602001820160405280156119985781602001600182028036833780820191505090505b50905060006040518060600160405280604081526020016139b0604091399050600181016020830160005b86811015611a3c5760038101905062ffffff818a015116603f8160121c168401518060081b905060ff603f83600c1c1686015116810190508060081b905060ff603f8360061c1686015116810190508060081b905060ff603f831686015116810190508060e01b905080845260048401935050506119c3565b506003860660018114611a565760028114611a6657611a71565b613d3d60f01b6002830352611a71565b603d60f81b60018303525b508484525050819450505050505b919050565b611a9e828260405180602001604052806000815250611f70565b5050565b611aab82610fdd565b611aea576040517f08c379a0000000000000000000000000000000000000000000000000000000008152600401611ae190612d8f565b60405180910390fd5b80600660008481526020019081526020016000209080519060200190611b119291906121ac565b505050565b6001816000016000828254019250508190555050565b611bc6838383604051602401611b4493929190612c31565b6040516020818303038152906040527fe3849f79000000000000000000000000000000000000000000000000000000007bffffffffffffffffffffffffffffffffffffffffffffffffffffffff19166020820180517bffffffffffffffffffffffffffffffffffffffffffffffffffffffff8381831617835250505050611bcb565b505050565b60008151905060006a636f6e736f6c652e6c6f679050602083016000808483855afa5050505050565b505050565b6000611c1a8473ffffffffffffffffffffffffffffffffffffffff16611fcb565b15611d83578373ffffffffffffffffffffffffffffffffffffffff1663150b7a02611c43611049565b8786866040518563ffffffff1660e01b8152600401611c659493929190612b7f565b602060405180830381600087803b158015611c7f57600080fd5b505af1925050508015611cb057506040513d601f19601f82011682018060405250810190611cad91906124f0565b60015b611d33573d8060008114611ce0576040519150601f19603f3d011682016040523d82523d6000602084013e611ce5565b606091505b50600081511415611d2b576040517f08c379a0000000000000000000000000000000000000000000000000000000008152600401611d2290612c6f565b60405180910390fd5b805181602001fd5b63150b7a0260e01b7bffffffffffffffffffffffffffffffffffffffffffffffffffffffff1916817bffffffffffffffffffffffffffffffffffffffffffffffffffffffff191614915050611d88565b600190505b949350505050565b60606000821415611dd8576040518060400160405280600181526020017f30000000000000000000000000000000000000000000000000000000000000008152509050611f38565b600082905060005b60008214611e0a578080611df390613186565b915050600a82611e039190612fae565b9150611de0565b60008167ffffffffffffffff811115611e4c577f4e487b7100000000000000000000000000000000000000000000000000000000600052604160045260246000fd5b6040519080825280601f01601f191660200182016040528015611e7e5781602001600182028036833780820191505090505b5090505b60008514611f3157600182611e979190613039565b9150600a85611ea691906131cf565b6030611eb29190612f58565b60f81b818381518110611eee577f4e487b7100000000000000000000000000000000000000000000000000000000600052603260045260246000fd5b60200101907effffffffffffffffffffffffffffffffffffffffffffffffffffffffffffff1916908160001a905350600a85611f2a9190612fae565b9450611e82565b8093505050505b919050565b600081604051602001611f5091906129fc565b6040516020818303038152906040528051906020012060001c9050919050565b611f7a8383611fde565b611f876000848484611bf9565b611fc6576040517f08c379a0000000000000000000000000000000000000000000000000000000008152600401611fbd90612c6f565b60405180910390fd5b505050565b600080823b905060008111915050919050565b600073ffffffffffffffffffffffffffffffffffffffff168273ffffffffffffffffffffffffffffffffffffffff16141561204e576040517f08c379a000000000000000000000000000000000000000000000000000000000815260040161204590612daf565b60405180910390fd5b61205781610fdd565b15612097576040517f08c379a000000000000000000000000000000000000000000000000000000000815260040161208e90612caf565b60405180910390fd5b6120a360008383611bf4565b6001600360008473ffffffffffffffffffffffffffffffffffffffff1673ffffffffffffffffffffffffffffffffffffffff16815260200190815260200160002060008282546120f39190612f58565b92505081905550816002600083815260200190815260200160002060006101000a81548173ffffffffffffffffffffffffffffffffffffffff021916908373ffffffffffffffffffffffffffffffffffffffff160217905550808273ffffffffffffffffffffffffffffffffffffffff16600073ffffffffffffffffffffffffffffffffffffffff167fddf252ad1be2c89b69c2b068fc378daa952ba7f163c4a11628f55a4df523b3ef60405160405180910390a45050565b8280546121b890613123565b90600052602060002090601f0160209004810192826121da5760008555612221565b82601f106121f357805160ff1916838001178555612221565b82800160010185558215612221579182015b82811115612220578251825591602001919060010190612205565b5b50905061222e9190612232565b5090565b5b8082111561224b576000816000905550600101612233565b5090565b600061226261225d84612ecf565b612eaa565b90508281526020810184848401111561227a57600080fd5b6122858482856130e1565b509392505050565b60008135905061229c8161392e565b92915050565b6000813590506122b181613945565b92915050565b6000813590506122c68161395c565b92915050565b6000815190506122db8161395c565b92915050565b600082601f8301126122f257600080fd5b813561230284826020860161224f565b91505092915050565b60008135905061231a81613973565b92915050565b60006020828403121561233257600080fd5b60006123408482850161228d565b91505092915050565b6000806040838503121561235c57600080fd5b600061236a8582860161228d565b925050602061237b8582860161228d565b9150509250929050565b60008060006060848603121561239a57600080fd5b60006123a88682870161228d565b93505060206123b98682870161228d565b92505060406123ca8682870161230b565b9150509250925092565b600080600080608085870312156123ea57600080fd5b60006123f88782880161228d565b94505060206124098782880161228d565b935050604061241a8782880161230b565b925050606085013567ffffffffffffffff81111561243757600080fd5b612443878288016122e1565b91505092959194509250565b6000806040838503121561246257600080fd5b60006124708582860161228d565b9250506020612481858286016122a2565b9150509250929050565b6000806040838503121561249e57600080fd5b60006124ac8582860161228d565b92505060206124bd8582860161230b565b9150509250929050565b6000602082840312156124d957600080fd5b60006124e7848285016122b7565b91505092915050565b60006020828403121561250257600080fd5b6000612510848285016122cc565b91505092915050565b60006020828403121561252b57600080fd5b60006125398482850161230b565b91505092915050565b61254b8161306d565b82525050565b61255a8161307f565b82525050565b600061256b82612f15565b6125758185612f2b565b93506125858185602086016130f0565b61258e816132bc565b840191505092915050565b60006125a482612f20565b6125ae8185612f3c565b93506125be8185602086016130f0565b6125c7816132bc565b840191505092915050565b60006125dd82612f20565b6125e78185612f4d565b93506125f78185602086016130f0565b80840191505092915050565b6000815461261081613123565b61261a8186612f4d565b94506001821660008114612635576001811461264657612679565b60ff19831686528186019350612679565b61264f85612f00565b60005b8381101561267157815481890152600182019150602081019050612652565b838801955050505b50505092915050565b600061268f600b83612f4d565b915061269a826132cd565b600b82019050919050565b60006126b2603283612f3c565b91506126bd826132f6565b604082019050919050565b60006126d5601583612f3c565b91506126e082613345565b602082019050919050565b60006126f8601c83612f3c565b91506127038261336e565b602082019050919050565b600061271b602483612f3c565b915061272682613397565b604082019050919050565b600061273e601983612f3c565b9150612749826133e6565b602082019050919050565b6000612761602c83612f3c565b915061276c8261340f565b604082019050919050565b6000612784600d83612f4d565b915061278f8261345e565b600d82019050919050565b60006127a7603883612f3c565b91506127b282613487565b604082019050919050565b60006127ca602a83612f3c565b91506127d5826134d6565b604082019050919050565b60006127ed602983612f3c565b91506127f882613525565b604082019050919050565b6000612810602e83612f3c565b915061281b82613574565b604082019050919050565b6000612833600283612f4d565b915061283e826135c3565b600282019050919050565b6000612856602083612f3c565b9150612861826135ec565b602082019050919050565b6000612879603183612f3c565b915061288482613615565b604082019050919050565b600061289c606983612f4d565b91506128a782613664565b606982019050919050565b60006128bf602c83612f3c565b91506128ca826136ff565b604082019050919050565b60006128e2602983612f3c565b91506128ed8261374e565b604082019050919050565b6000612905602f83612f3c565b91506129108261379d565b604082019050919050565b6000612928602183612f3c565b9150612933826137ec565b604082019050919050565b600061294b600b83612f4d565b91506129568261383b565b600b82019050919050565b600061296e601d83612f4d565b915061297982613864565b601d82019050919050565b6000612991603183612f3c565b915061299c8261388d565b604082019050919050565b60006129b4600983612f4d565b91506129bf826138dc565b600982019050919050565b60006129d7600c83612f4d565b91506129e282613905565b600c82019050919050565b6129f6816130d7565b82525050565b6000612a0882846125d2565b915081905092915050565b6000612a1f82856125d2565b9150612a2b82846125d2565b91508190509392505050565b6000612a4382866125d2565b9150612a4f82856125d2565b9150612a5b82846125d2565b9150819050949350505050565b6000612a748285612603565b9150612a8082846125d2565b9150612a8b82612777565b91508190509392505050565b6000612aa282612682565b9150612aae82846125d2565b915081905092915050565b6000612ac48261293e565b9150612ad082846125d2565b915081905092915050565b6000612ae682612961565b9150612af282846125d2565b915081905092915050565b6000612b08826129a7565b9150612b1482856125d2565b9150612b1f8261288f565b9150612b2b82846125d2565b9150612b3682612826565b91508190509392505050565b6000612b4d826129ca565b9150612b5982846125d2565b915081905092915050565b6000602082019050612b796000830184612542565b92915050565b6000608082019050612b946000830187612542565b612ba16020830186612542565b612bae60408301856129ed565b8181036060830152612bc08184612560565b905095945050505050565b6000604082019050612be06000830185612542565b612bed60208301846129ed565b9392505050565b6000602082019050612c096000830184612551565b92915050565b60006020820190508181036000830152612c298184612599565b905092915050565b60006060820190508181036000830152612c4b8186612599565b9050612c5a60208301856129ed565b612c676040830184612542565b949350505050565b60006020820190508181036000830152612c88816126a5565b9050919050565b60006020820190508181036000830152612ca8816126c8565b9050919050565b60006020820190508181036000830152612cc8816126eb565b9050919050565b60006020820190508181036000830152612ce88161270e565b9050919050565b60006020820190508181036000830152612d0881612731565b9050919050565b60006020820190508181036000830152612d2881612754565b9050919050565b60006020820190508181036000830152612d488161279a565b9050919050565b60006020820190508181036000830152612d68816127bd565b9050919050565b60006020820190508181036000830152612d88816127e0565b9050919050565b60006020820190508181036000830152612da881612803565b9050919050565b60006020820190508181036000830152612dc881612849565b9050919050565b60006020820190508181036000830152612de88161286c565b9050919050565b60006020820190508181036000830152612e08816128b2565b9050919050565b60006020820190508181036000830152612e28816128d5565b9050919050565b60006020820190508181036000830152612e48816128f8565b9050919050565b60006020820190508181036000830152612e688161291b565b9050919050565b60006020820190508181036000830152612e8881612984565b9050919050565b6000602082019050612ea460008301846129ed565b92915050565b6000612eb4612ec5565b9050612ec08282613155565b919050565b6000604051905090565b600067ffffffffffffffff821115612eea57612ee961328d565b5b612ef3826132bc565b9050602081019050919050565b60008190508160005260206000209050919050565b600081519050919050565b600081519050919050565b600082825260208201905092915050565b600082825260208201905092915050565b600081905092915050565b6000612f63826130d7565b9150612f6e836130d7565b9250827fffffffffffffffffffffffffffffffffffffffffffffffffffffffffffffffff03821115612fa357612fa2613200565b5b828201905092915050565b6000612fb9826130d7565b9150612fc4836130d7565b925082612fd457612fd361322f565b5b828204905092915050565b6000612fea826130d7565b9150612ff5836130d7565b9250817fffffffffffffffffffffffffffffffffffffffffffffffffffffffffffffffff048311821515161561302e5761302d613200565b5b828202905092915050565b6000613044826130d7565b915061304f836130d7565b92508282101561306257613061613200565b5b828203905092915050565b6000613078826130b7565b9050919050565b60008115159050919050565b60007fffffffff0000000000000000000000000000000000000000000000000000000082169050919050565b600073ffffffffffffffffffffffffffffffffffffffff82169050919050565b6000819050919050565b82818337600083830152505050565b60005b8381101561310e5780820151818401526020810190506130f3565b8381111561311d576000848401525b50505050565b6000600282049050600182168061313b57607f821691505b6020821081141561314f5761314e61325e565b5b50919050565b61315e826132bc565b810181811067ffffffffffffffff8211171561317d5761317c61328d565b5b80604052505050565b6000613191826130d7565b91507fffffffffffffffffffffffffffffffffffffffffffffffffffffffffffffffff8214156131c4576131c3613200565b5b600182019050919050565b60006131da826130d7565b91506131e5836130d7565b9250826131f5576131f461322f565b5b828206905092915050565b7f4e487b7100000000000000000000000000000000000000000000000000000000600052601160045260246000fd5b7f4e487b7100000000000000000000000000000000000000000000000000000000600052601260045260246000fd5b7f4e487b7100000000000000000000000000000000000000000000000000000000600052602260045260246000fd5b7f4e487b7100000000000000000000000000000000000000000000000000000000600052604160045260246000fd5b6000601f19601f8301169050919050565b7f54484952445f574f524453000000000000000000000000000000000000000000600082015250565b7f4552433732313a207472616e7366657220746f206e6f6e20455243373231526560008201527f63656976657220696d706c656d656e7465720000000000000000000000000000602082015250565b7f6f6e6c79203530204e4654206176616c6961626c650000000000000000000000600082015250565b7f4552433732313a20746f6b656e20616c7265616479206d696e74656400000000600082015250565b7f4552433732313a207472616e7366657220746f20746865207a65726f2061646460008201527f7265737300000000000000000000000000000000000000000000000000000000602082015250565b7f4552433732313a20617070726f766520746f2063616c6c657200000000000000600082015250565b7f4552433732313a206f70657261746f7220717565727920666f72206e6f6e657860008201527f697374656e7420746f6b656e0000000000000000000000000000000000000000602082015250565b7f3c2f746578743e3c2f7376673e00000000000000000000000000000000000000600082015250565b7f4552433732313a20617070726f76652063616c6c6572206973206e6f74206f7760008201527f6e6572206e6f7220617070726f76656420666f7220616c6c0000000000000000602082015250565b7f4552433732313a2062616c616e636520717565727920666f7220746865207a6560008201527f726f206164647265737300000000000000000000000000000000000000000000602082015250565b7f4552433732313a206f776e657220717565727920666f72206e6f6e657869737460008201527f656e7420746f6b656e0000000000000000000000000000000000000000000000602082015250565b7f45524337323155524953746f726167653a2055524920736574206f66206e6f6e60008201527f6578697374656e7420746f6b656e000000000000000000000000000000000000602082015250565b7f227d000000000000000000000000000000000000000000000000000000000000600082015250565b7f4552433732313a206d696e7420746f20746865207a65726f2061646472657373600082015250565b7f45524337323155524953746f726167653a2055524920717565727920666f722060008201527f6e6f6e6578697374656e7420746f6b656e000000000000000000000000000000602082015250565b7f222c20226465736372697074696f6e223a20224120686967686c79206163636c60008201527f61696d656420636f6c6c656374696f6e206f662072616e646f6d20776f72647360208201527f2e222c2022696d61676573223a2022646174613a696d6167652f7376672b786d60408201527f6c3b6261736536342c0000000000000000000000000000000000000000000000606082015250565b7f4552433732313a20617070726f76656420717565727920666f72206e6f6e657860008201527f697374656e7420746f6b656e0000000000000000000000000000000000000000602082015250565b7f4552433732313a207472616e73666572206f6620746f6b656e2074686174206960008201527f73206e6f74206f776e0000000000000000000000000000000000000000000000602082015250565b7f4552433732314d657461646174613a2055524920717565727920666f72206e6f60008201527f6e6578697374656e7420746f6b656e0000000000000000000000000000000000602082015250565b7f4552433732313a20617070726f76616c20746f2063757272656e74206f776e6560008201527f7200000000000000000000000000000000000000000000000000000000000000602082015250565b7f46495253545f574f524453000000000000000000000000000000000000000000600082015250565b7f646174613a6170706c69636174696f6e2f6a736f6e3b6261736536342c000000600082015250565b7f4552433732313a207472616e736665722063616c6c6572206973206e6f74206f60008201527f776e6572206e6f7220617070726f766564000000000000000000000000000000602082015250565b7f7b226e616d653a20220000000000000000000000000000000000000000000000600082015250565b7f5345434f4e445f574f5244530000000000000000000000000000000000000000600082015250565b6139378161306d565b811461394257600080fd5b50565b61394e8161307f565b811461395957600080fd5b50565b6139658161308b565b811461397057600080fd5b50565b61397c816130d7565b811461398757600080fd5b5056fe416e204e465420772f20494420257320686173206265656e206d696e74656420746f2025734142434445464748494a4b4c4d4e4f505152535455565758595a6162636465666768696a6b6c6d6e6f707172737475767778797a303132333435363738392b2fa2646970667358221220a9667cdf2d74da976e1b811be62c6dbc7e41d044ae1792bb06c4776599f7fe9264736f6c634300080400333c73766720786d6c6e733d27687474703a2f2f7777772e77332e6f72672f323030302f73766727207072657365727665417370656374526174696f3d27784d696e594d696e206d656574272076696577426f783d273020302033353020333530273e3c7374796c653e2e62617365207b2066696c6c3a2077686974653b20666f6e742d66616d696c793a2073657269663b20666f6e742d73697a653a20323470783b207d3c2f7374796c653e3c726563742077696474683d273130302527206865696768743d2731303025272066696c6c3d27626c61636b27202f3e3c7465787420783d273530252720793d273530252720636c6173733d27626173652720646f6d696e616e742d626173656c696e653d276d6964646c652720746578742d616e63686f723d276d6964646c65273e",
    "linkReferences": {},
    "deployedLinkReferences": {}
}